:020000040800F2
:1000000030060020050100083B0D0008790C0008AF
:10001000390D0008B5010008FD0D000800000000C2
:100020000000000000000000000000005F0D00085C
:10003000B7010008000000005D0D0008610D000818
:100040001F0100081F0100081F0100081F01000810
:100050001F0100081F0100081F0100081F01000800
:100060001F0100081F0100081F0100081F010008F0
:100070001F0100081F0100081F0100081F010008E0
:100080001F0100081F0100081F0100081F010008D0
:100090001F0100081F0100081F0100081F010008C0
:1000A0001F0100081F0100081F0100081F010008B0
:1000B0001F0100081F0100081F0100081F010008A0
:1000C0001F0100081F0100081F0100081F01000890
:1000D0001F0100081F0100081F0100081F01000880
:1000E0001F0100081F0100081F010008DFF810D0E1
:1000F00000F04EF8004800471D0E0008AFF30080E6
:10010000300600200648804706480047FEE7FEE725
:10011000FEE7FEE7FEE7FEE7FEE7FEE7FEE7FEE7B7
:10012000B50D0008ED000008202A04DB203A21FA72
:1001300002F00021704721FA02F3D040C2F1200200
:10014000914008431946704740EA01039B0703D0DA
:1001500009E008C9121F08C0042AFAD203E011F806
:10016000013B00F8013B521EF9D27047D2B201E0C8
:1001700000F8012B491EFBD270470022F6E710B5AC
:1001800013460A4604461946FFF7F0FF204610BD05
:10019000064C074D06E0E06840F0010394E80700D4
:1001A00098471034AC42F6D3FFF7A4FF940E000832
:1001B000B40E0008FEE77047064A0021D1610649E7
:1001C0000A6942F002020A614861086940F0400091
:1001D000086170471002002000200240044B0022FA
:1001E000DA61044A136943F0010313610180704727
:1001F000100200200020024014480022C168CB06F3
:10020000134904D5CA6942F00202CA611022C368C8
:100210005B0705D5CB6943F00103CB6142F00402D3
:10022000C369DB0707D0CB6943F00403CB61C16925
:1002300021F00101C161A2F58071013901D0C260D4
:100240007047C16921F00101C1617047002002407F
:100250001002002070B5054600F0FCF90646114C6E
:1002600009E0681C07D025B100F0F4F9801BA84212
:1002700001D9032070BDE068C007F2D1E0688006B4
:1002800001D52020E060E068C00605D4E069C00721
:1002900002D1E068400703D5FFF7AEFF012070BD33
:1002A000002070BD00200240F0B50F4D00248318DF
:1002B000AB4217D8C30705D030F8013C01241B0A14
:1002C0000B70401C0023551E171B09E01E19C25A53
:1002D0008A55AE4202DA0E44120A72709B1C9BB21F
:1002E0009F42F3DCF0BD0000000001082DE9F04F53
:1002F000C0F30903C61A831BADF2044D9FB28946B1
:1003000015464FF00108B0F1006F41D32249104467
:1003100088423DD2002D3BD000F0A4F8EB464FF4CC
:10032000806A00205946524633580B50001D80B257
:100330009042F9D30024C81905E000BF19F8041051
:100340000155641CA4B2E119514501D2AC42F5D368
:100350003046FFF731FF4CF2503703E03846FFF7E5
:1003600079FF8046B8F1000FF8D10C48016921F0FF
:100370000201016152466946304600F011F82D1B1A
:10038000A1444FF0000706F58066CAD100F020F8BE
:100390000DF2044DBDE8F08F00000108002002407E
:1003A0002DE9F04117460E46804600240CE000BFC0
:1003B00008EB0405325929460023022000F012F808
:1003C0000028F7D1241DA4B2BC42F1D3BDE8F081CE
:1003D0000348016941F0800101610020704700007D
:1003E000002002402DE9F05F07461C4888460024A3
:1003F000017E15461E46012909D00121814601765C
:100400004CF2503A5046FFF725FF18B122E0022087
:10041000BDE8F09F012F02D0022F00D00427D34661
:10042000DFF83CA0220128463146FFF77DFE81B26D
:1004300008EB4400FFF7D2FE5846FFF70BFFDAF84F
:10044000102022F00102CAF8102018B9641CE4B28E
:10045000BC42E7D3002289F81820D9E71002002017
:1004600000200240064900200A69120607D5054A05
:100470004A60054A4A600969090600D501207047AB
:100480000020024023016745AB89EFCD2DE9F84FED
:10049000DFF890A100220AF1040B144601274FF067
:1004A0000F090BF1040E00BF0B6807FA04F52B408F
:1004B000AB4274D1DFF870C14E68A6EB0C086645FC
:1004C0002BD00DDC032E34D005DC36B3012E19D031
:1004D000022E2FD11BE0112E16D0122E2AD119E098
:1004E000B8F5881F19D006DCB8F5803F15D0B8F5EF
:1004F000801F1FD111E0B8F5001F0ED0B8F5041F02
:1005000018D10AE0CA6815E0CA68121D12E0CA686C
:1005100008320FE0CA680C320CE08A682AB1012A5E
:100520004FF0080203D0456104E0042202E00561B7
:1005300000E00022FF2B01D8064601E000F104068E
:100540004FEA840501D9A5F12005D6F800C009FAC3
:1005500005F82CEA080C02FA05F54CEA050CC6F879
:1005600000C04D68ED0057D5304DAE6946F001062C
:10057000AE61AD6924F0030605F0010500952C4D30
:1005800006EB050CDCF80850A6074FEA167809FAC6
:1005900008F6B543274EB04202D1002610E03BE0FA
:1005A000254EB04201D101260AE0244EB04201D1CD
:1005B000022605E0224EB04201D1032600E00426C7
:1005C00006FA08F62E43CCF808604D68DAF80060A9
:1005D000ED03554601D51E4300E09E432E604D6855
:1005E000DBF80060AD035D4601D51E4300E09E438D
:1005F0002E604D68DEF80060ED02754601D51E43A1
:1006000000E09E432E604D68AD020E4D2E6801D570
:100610001E4300E09E432E60641C102CFFF444AF88
:10062000BDE8F88F000401400000111000100240E6
:100630000000014000080140000C01400010014092
:10064000001401400C0401400AB101617047090423
:10065000FBE70000014880687047000000000020B0
:1006600002488168027811448160704700000020D0
:10067000074810B5016841F010010160032000F047
:1006800067F8002000F006F800F024F8002010BD04
:100690000020024070B50D4D04464FF47A71287861
:1006A000B1FBF0F00A490968B1FBF0F000F0D0FAB4
:1006B00048B9102C07D200222146501E00F028F81D
:1006C00000206C6070BD012070BD000000000020A3
:1006D0000C0000200C4808B5816941F001018161DE
:1006E000816901F001010091C16941F08051C1614E
:1006F000C06900F0805000900448416821F0E0613A
:1007000041F00071416008BD00100240000001404E
:10071000F0B40E4B1B680C46C3F30223C3F107056C
:10072000042D00D90425191D072901D2002300E05A
:10073000DB1E012606FA05F1491E214099409E4024
:10074000761E16403143F0BC00F0F8BA0CED00E024
:10075000064900F0070208684FF6FF03184040EA18
:100760000220034A10430860704700000CED00E0CF
:100770000000FA052DE9F047DFF8548105460E46E2
:10078000D8F8000000F00700B0420CD2D8F80010F2
:1007900021F007013143C8F80010D8F8000000F03C
:1007A0000700B0426FD128684A4C810712D5400734
:1007B00003D5606840F4E06060602878000703D5E6
:1007C000606840F4605060606068A96820F0F000E4
:1007D000084360602878C00744D06868012816D0B4
:1007E0002168022816D0890700294CDA616821F0B7
:1007F000030101436160FFF72DFF6968074641F27D
:10080000883001290ED00229814618D026E02168BF
:100810008903E9E78901E7E7FFF71CFFC11B4945A9
:1008200001D918E081466068C0F381000128F3D146
:1008300018E000BFFFF70EFFC11B49450BD86068E9
:10084000C0F381000228F5D10CE000BFFFF702FFE2
:10085000C11B494502D90320BDE8F087606810F04C
:100860000C0FF3D1D8F80010404601F00701B14257
:100870000BD9016821F0070131430160006800F0E5
:100880000700B04201D00120E6E72878400705D5EF
:100890006068E96820F4E060084360602878000739
:1008A00006D56068296920F4605040EAC1006060A4
:1008B00000F016F86168084AC1F30311515CC840A2
:1008C000064908600020FFF7E5FE0020C4E70000AD
:1008D0000020024000100240840E00080C0000209E
:1008E00012A185B00FC98DE80F0014A0144A00684A
:1008F00004905168134801F00C03042B10D0082B0E
:100900000ED1C1F38343C9031DF803000AD5516812
:1009100004AAC1F34041515C0A4A5043B0FBF1F0D4
:1009200005B0704708494843FAE700000203040590
:10093000060708090A0B0C0D0E0F1010010200002B
:100940000010024000127A0000093D002DE9F84F26
:1009500004460078B94DC00748D06868C0F38100EC
:10096000012807D06868C0F38100022809D16868AF
:10097000C00306D52868800338D5606800286FD08A
:1009800034E06068B0F5803F0BD010B1B0F5A02F17
:1009900011D0286820F480302860286820F4802056
:1009A00002E0286840F480302860606888B1FFF772
:1009B00051FE064609E0286840F480202860F0E7F0
:1009C000FFF748FE801B642875D828688003F7D598
:1009D0000CE0FFF73FFE064605E000BFFFF73AFEDA
:1009E000801B6428F0D828688003F7D42078944EC0
:1009F00080074FF001094FF000083BD5686810F000
:100A00000C0F07D06868C0F38100022809D168681C
:100A1000C00306D42868800714D5206901281FD197
:100A200010E02069B0B1C6F80090FFF713FE07464A
:100A300005E000BFFFF70EFEC01B0228C4D82868DF
:100A40008007F7D52868616920F0F80040EAC10006
:100A500028600FE0C6F80080FFF7FCFD074606E0BF
:100A6000E9E000BFFFF7F6FDC01B022823D8286885
:100A70008007F7D4207800072CD57248A169D9B136
:100A8000C0F80090FFF7E6FD074604E0FFF7E2FD3F
:100A9000C01B02280FD8686A8007F7D56A484FF450
:100AA000FA510068B0FBF1F0009000BF0098411EC1
:100AB0000091FAD20EE080E0C0F80080FFF7CAFD96
:100AC000074604E0FFF7C6FDC01B022875D8686A18
:100AD0008007F7D42078400760D5E8690027C00078
:100AE00008D4E86940F08050E861E869012700F027
:100AF0008050009055480168C90513D401688346A9
:100B000041F480710160FFF7A5FD824606E000BF59
:100B1000FFF7A0FDA0EB0A0064284ED8DBF8000028
:100B2000C005F5D5E06801280AD008B1052813D022
:100B3000286A20F001002862286A20F0040002E000
:100B4000286A40F001002862E06841F2883B98B1D1
:100B5000FFF780FD82460BE0286A40F0040028621F
:100B6000EEE700BFFFF776FDA0EB0A0159455AD822
:100B7000286A8007F6D50CE0FFF76CFD824605E099
:100B8000FFF768FDA0EB0A0159454CD8286A800799
:100B9000F6D41FB1E86920F08050E861E06988B3BD
:100BA0006968C1F38101022945D00228C6F8608036
:100BB00004D0FFF74FFD044638E034E0FFF74AFD6C
:100BC000074604E0FFF746FDC01B02282BD8286823
:100BD0008001F7D4206AB0F5803F05D16868A1682C
:100BE00020F4003008436860D4E9080108436968CC
:100BF00021F4741108436860C6F86090FFF72AFD7D
:100C0000044606E015E000BFFFF724FD001B0228A4
:100C100009D828688001F7D50BE000BFFFF71AFD5F
:100C2000001B022802D90320BDE8F88F2868800144
:100C3000F4D40020F8E70120F6E70000001002409D
:100C400000004242800442420C000020007000403C
:100C500010B5401EB0F1807F01D3012010BD4FF0D0
:100C6000E02460610F21601700F068F80020A061A7
:100C700007202061002010BDFEE7000070B586B09F
:100C8000002429480094019402940394816941F05E
:100C900010018161816901F010010491816941F0C5
:100CA00020018161816901F020010491816941F095
:100CB00004018161816901F004010491816941F0BD
:100CC000080181618069194E00F008004FF4005559
:100CD0000490002229463046FFF7B6FC012000951B
:100CE000CDE901040220039069463046FFF7CEFBB0
:100CF0004FF440400324CDE9000469463046FFF735
:100D0000C5FB49F6FF70CDE9000469460848FFF7C6
:100D1000BDFB4FF6FF70CDE9000469460548FFF7BB
:100D2000B5FB06B070BD000000100240001001408D
:100D300000080140000C0140FEE770470907090E5A
:100D4000002806DA00F00F0000F1E02080F8141D02
:100D5000704700F1E02080F800147047704770473A
:100D6000FFF77EBC30B58FB028216846FFF705FA43
:100D700014210AA8FFF701FA01210804CDE90010A7
:100D80000024029402250491CDE907504FF4E010AD
:100D900009906846FFF7DAFD0F20CDE90A056802E1
:100DA000CDE90C4002210AA80E94FFF7E3FC0FB036
:100DB00030BD00000D48016841F00101016041684B
:100DC0000B4A1140416001680A4A11400160016804
:100DD00021F480210160416821F4FE0141604FF45B
:100DE0001F0181600449C003086070470010024081
:100DF0000000FFF8FFFFF6FE08ED00E0FEE702E06E
:100E000008C8121F08C1002AFAD170477047002095
:100E100001E001C1121F002AFBD1704786B01422E5
:100E200011A16846FFF790F9FFF722FCFFF79AFF40
:100E3000142269461148FFF759FA11490020085455
:100E4000401CC0B2FF28FAD30C4CFF2214340C49CA
:100E50002046FFF74BFA0A49FF22FF312046FFF7F1
:100E600023FAFFF70BFFFEE7585059206973206102
:100E7000207265616C20494B554E210000C000086E
:100E80001000002000000000000000000102030428
:100E900006070809B40E000800000020100000003A
:100EA000FE0D0008C40E00081000002020060000FF
:100EB0000E0E0008010000001000000000000000FD
:040EC00000A24A043E
:04000005080000ED02
:00000001FF
